:100000000C9473020C94BA020C94BA020C94BA02C7
:100010000C94BA020C94BA020C94BA020C94BA0270
:100020000C94BA020C94BA020C94D61E0C94A81F1D
:100030000C9443150C94BA020C94BA020C94BA02B4
:100040000C94BA020C94BA020C94BA020C94BA0240
:100050000C94BA020C94AB150C94BA020C94BA022C
:100060000C94BA020C94BA020C94BA020C94BA0220
:100070000C94BA020C94BA020C94BA020C94BA0210
:100080000C94BA020C94BA020C94BA020C94BA0200
:100090000C94BA020C94BA020C94BA020C94BA02F0
:1000A0000C94BA020C94BA020C94BA02E104E30470
:1000B000EE04E504E704E904EB04ED04F004F204C3
:1000C000F404FF04F604F804FA04FC04FE04010539
:1000D000E30BE30B160C160C4C0C6C0C9D0D9D0DDC
:1000E000770C9D0D270D270D8E0D9D0D9D0D970DE8
:1000F000340D340D340D340D340D340D340D340DF8
:10010000340D340D340D340D340D340D340D340DE7
:10011000460D530D5A0D610D6B0D1A0E1A0E2C0E55
:100120002C0E230E2C0E2C0E2C0E1A0E1A0E280E30
:100130002C0E2C0E280E15203720252137202521A6
:100140007C209F202521F42007216572676F646F52
:10015000782F6572676F646F785F657A5F64363792
:100160006338333065313536306537343263393989
:1001700063204020706C616E636B2D342E312D38FE
:10018000302D67363732353236000000F0A13500A9
:100190002F002B00E100290000001E0014000400C5
:1001A0001D00010001001F001A0015001B000100C6
:1001B000E30020000900160006005000280021007E
:1001C0001300170019004F00010022000A00070069
:1001D00005000000E2002E002A000000E000000000
:1001E000010031002A000000E0000000A800230008
:1001F0000D000B000E000000E20024000F001100B3
:1002000010005200A9002500180008003600510017
:100210002C0026001C000C003700AC00E300270077
:10022000330012003800AE00AA002D003000340068
:10023000E100AB00000000000000000000002A2BDD
:100240002800000000000000000000000000000086
:100250000029000000002C1E3420212224342627EF
:10026000252E362D3738271E1F2021222324252610
:100270003333362E37381F0405060708090A0B0CDE
:100280000D0E0F101112131415161718191A1B1C26
:100290001D2F3130232D350405060708090A0B0CE4
:1002A0000D0E0F101112131415161718191A1B1C06
:1002B0001D2F3130354C0000000000000000000010
:1002C000000000000000000000000000000000002E
:1002D0000000000000000001010101010100010116
:1002E000010100000000000000000000000000000C
:1002F00001000100010101010101010101010101F0
:1003000001010101010101010101010101010101DD
:1003100001000000010100000000000000000000DA
:1003200000000000000000000000000000000000CD
:1003300000010101010016034500720067006F0013
:1003400044006F007800200045005A0000001603AA
:100350004500720067006F0044006F0078002000C5
:1003600045005A0000000403090409026D0004015D
:1003700000A0FA0904000001030101000921110194
:1003800000012240000705810308000A090401005A
:100390000103010200092111010001224D0007059E
:1003A000820308000A090402000103000000092179
:1003B000110100012236000705830308000A090421
:1003C000030001030000000921110100012239008E
:1003D000070584032000011201100100000008ED50
:1003E000FE071301000102000105010906A1010534
:1003F0000719E029E7150025019508750181020517
:10040000081901290595057501910295017503915A
:10041000010507190029F71500250195F8750181D7
:1004200002C005010980A101850216810026B700DE
:100430001A81002AB700751095018100C0050C09CA
:1004400001A1018503160100269C021A01002A9CC5
:1004500002751095018100C005010902A101090181
:10046000A10005091901290515002501950575014A
:10047000810295017503810105010930093115815A
:10048000257F95027508810609381581257F95011C
:1004900075088106050C0A38021581257F950175BE
:1004A000088106C0C005010906A101050719E02958
:1004B000E7150025019508750181029501750881F0
:1004C0000105081901290595057501910295017528
:1004D0000391010507190029FF150026FF00950665
:1004E00075088100C00011241FBECFEFDAE0DEBF27
:1004F000CDBF04B603FE27C080911F029091200259
:10050000A0912102B09122028730904BA740B04BBE
:10051000D1F410921F021092200210922102109228
:10052000220214BE84B7877F84BF0FB6F894A895C3
:1005300080916000886180936000109260000FBE1F
:10054000E0E0FFE3099511E0A0E0B1E0E0EEF5E4C2
:1005500002C005900D92A433B107D9F722E0A4E3BD
:10056000B1E001C01D92AF31B207E1F70E941D1C3E
:100570000C94EE220C9400001092B9008AE0809353
:10058000B800089594EA9093BC009091BC0097FF46
:10059000FCCF9091B900987F983021F0903111F004
:1005A00081E008958093BB0084E88093BC00809133
:1005B000BC0087FFFCCF8091B900887F883111F0A3
:1005C000803471F780E0089584E98093BC008091C5
:1005D000BC0084FDFCCF08958093BB0084E8809329
:1005E000BC008091BC0087FFFCCF9091B900987F40
:1005F00081E0983209F480E0089584E88093BC009B
:100600008091BC0087FFFCCF8091BB00089580B330
:100610008C7080BB81B3836F81BB08958091010191
:10062000811115C080E40E94C202809301018111F2
:100630000CC082E10E94EC0280930101811105C08F
:100640008FEF0E94EC02809301010E94E40284B1CA
:10065000807F84B985B1807F85B98AB1837F8AB96B
:100660008BB1837F8BB93E984698089508950C947A
:1006700062040E947D08809301010E940E030E9483
:100680000703A5E3B1E0E3E4F1E08EE08E0F119201
:100690001D928E13FCCF0C9467080E947D088093F6
:1006A00001010E940E030E940703A5E3B1E0E3E409
:1006B000F1E08EE08E0F11921D928E13FCCF089503
:1006C000BF92CF92DF92EF92FF920F931F93CF933F
:1006D000DF9380910101882379F0809134018F5F4D
:1006E00080933401811108C00E947D08809301012C
:1006F000811102C00E940F0805E311E0C0E0D0E0C4
:10070000EE24E394F12CDD24D39495E0C92EC73078
:10071000D10500F58091010181113CC080E40E9467
:10072000C20280930101811112C082E10E94EC0299
:100730008093010181110BC0C7010C2E01C0880FED
:100740000A94EAF780950E94EC02809301010E94CE
:10075000E40220C0CA30A1F028F4C83059F0C930F2
:1007600061F005C0CC3089F070F0CD3089F0209A6E
:10077000289810C0219A29980DC0229A2A980AC058
:10078000239A2B9807C0529A01C0539A5B9802C0D3
:100790003E9A469880EA8A95F1F7C730D10518F558
:1007A00080910101811144C080E40E94C2028093C3
:1007B0000101882311F0B12C12C083E10E94EC02E8
:1007C000809301018111F7CF81E40E94C2028093DE
:1007D00001018111F0CF0E94FD02B82EB0940E9459
:1007E000E4028B2D26C08FB181708D25799902C0CE
:1007F00092E001C090E0892B7C9902C024E001C006
:1008000020E0822B7D9902C028E001C020E0822BED
:100810007E9902C090E101C090E0892B9FB1909534
:10082000991F9927991F9295990F907E892B01C046
:1008300080E0F8019081981719F08083C092000140
:100840000E940E0321960F5F1F4FCE30D10509F095
:100850005ECF809100018823A1F081508093000138
:10086000882329F0F5E0FA95F1F700000AC0A3E427
:10087000B1E0E5E3F1E0CF01825F91919D938E13AA
:10088000FCCF0E94990581E0DF91CF911F910F91DC
:10089000FF90EF90DF90CF90BF900895E82FF0E0A9
:1008A000ED5BFE4F808108950895611108C0FC0141
:1008B0008281882321F08AE491E00E946E0580E025
:1008C00090E008956091B0017091B1018091B20102
:1008D0009091B3010E94761456985E9825982D98B1
:1008E00026982E9827982F98813019F0823021F081
:1008F0000895259A2D9A0895269A2E9A089581E0B2
:10090000089581E008950C9481040E94080E2FEF51
:1009100084E39CE0215080409040E1F700C000005B
:100920000C94D0150F931F93CF93DF938C01FC0190
:10093000C081D181CE010E94FB12BE010E9430070E
:10094000EC01B8010E948304882309F4C1C0B801F6
:10095000CE010E94C007882309F4BAC0B801CE01B5
:100960000E943809882309F4B3C0C531F0E7DF07D6
:1009700008F07CC0C23080E7D80708F452C0F80104
:100980008281882309F459C00E94E014811102C0B9
:100990000E94C6140E94F31490E090931102809379
:1009A0001002FE01E350F047E231F10530F4EA5A5B
:1009B000FF4F809110020C949E2280911002816062
:1009C00027C0826025C0846023C0806121C080620E
:1009D0001FC080641DC080681BC08460886018C010
:1009E0008E7F16C08D7F14C08B7F12C08F7E10C08B
:1009F0008F7D0EC08F7B0CC08F770AC08B7F877F67
:100A000007C087FB222720F991E0922790FB87F906
:100A100080931002809110020E94F7140E94080E29
:100A200057C0C115E0E7DE0779F0C130D047A1F02B
:100A300081E08093510180935201C801DF91CF91F1
:100A40001F910F910C947F04F8018281882309F48F
:100A50003FC00E9485043CC0F80182818823C1F117
:100A60008091DD0181608093DD0132C0CC3380E76D
:100A7000D807A1F4F8018281882321F01092510156
:100A800082E016C080915101811106C086E20E9469
:100A90007C0A86E20E944F0B82E018C0CD33D0471B
:100AA00039F6F8018281882331F01092520180E2F8
:100AB0000E949E0B0DC080915201811106C087E2F9
:100AC0000E947C0A87E20E944F0B80E20E94A50BE5
:100AD00080E0DF91CF911F910F9108950F931F93A5
:100AE000CF938C01F80124912223F9F030E0F90131
:100AF000EA5CFD4FC491F901EA54FD4F2491222391
:100B000059F081EE0E947C0A8C2F0E947C0A8C2F67
:100B10000E944F0B81EE04C08C2F0E947C0A8C2F08
:100B20000E944F0B0F5F1F4FDDCFCF911F910F9191
:100B300008950C94370308950C949B050C949C0520
:100B400026E0729FF001112444E5849FE00DF11D21
:100B50001124E60FF11DEE0FFF1FE257FE4F8591A6
:100B600094910E944207811560E49607B0F58115C3
:100B700070E3970708F0E6C0803E9105D8F4803C0A
:100B8000910508F06CC0883A910578F4853A910592
:100B900008F06BC08130910509F460C108F417C1F9
:100BA0008430910508F05AC112C18D3B910508F4BB
:100BB00067C00DC18F3F910509F048F4803F910552
:100BC00008F0B5C0883E910508F448C100C1811500
:100BD00020E2920708F0ADC00895811543E594071F
:100BE00090F4811562E5960708F0D0C0811571E593
:100BF000970708F0C6C0811520E5920708F0A5C048
:100C00009F70906A0895811545E59407D8F4811581
:100C100064E5960708F0D0C0482F4695469570E2E7
:100C2000479FA00111248370992721E030E0B9018A
:100C300002C0660F771F8A95E2F7CB01842B952BB4
:100C40009A680895811576E5970708F4BAC09C0163
:100C500030562115304108F0BAC09F70B6C0FC0173
:100C6000EE0FFF1FE65FFF4F6AC0853A910509F45A
:100C7000B1C0863A910509F0B0C082E890E40895C9
:100C8000883A910509F4ACC0893A910509F4ABC0E2
:100C90008A3A910509F4AAC08B3A910509F4A9C0D2
:100CA0008C3A910509F4A8C08B3B910509F4A7C0C3
:100CB0008C3B910509F4A6C08D3A910509F4A5C0B5
:100CC000803B910509F4A4C08E3A910509F4A3C0B4
:100CD0008F3A910509F4A2C0813B910509F4A1C0A6
:100CE000823B910509F4A0C0833B910509F49FC0A4
:100CF000843B910509F49EC0853B910509F49DC094
:100D0000863B910509F49CC0873B910509F49BC083
:100D1000883B910509F49AC0893B910509F499C073
:100D20008A3B910509F498C080E094E408959065A9
:100D30000895FC01FF70EE0FFF1FE657FE4F8591EF
:100D4000949108959927906C0895482F437021E05D
:100D500030E002C0220F331F4A95E2F73C68AC0135
:100D600064E0569547956A95E1F74370342B8F7090
:100D70008695869560E2869FC0011124822B932B75
:100D80000895982F8827816F906A0895482F469577
:100D9000469570E2479FA00111248370992721E0B6
:100DA00030E0B90102C0660F771F8A95E2F7CB01E8
:100DB000842B952B9C680895982F8827846F906AC0
:100DC00008958F719927982F88279062089580E061
:100DD00090E0089581E890E4089583E890E4089510
:100DE00082EE94E4089589EE94E408958AEE94E402
:100DF000089585EB94E4089586EB94E4089583EBDD
:100E000094E4089584EB94E4089587EB94E40895C2
:100E10008CEC94E408958DEC94E4089583E895E4D3
:100E200008958AE895E4089582E995E4089584E9AF
:100E300095E4089581E296E4089583E296E40895A6
:100E400084E296E4089585E296E4089586E296E4C5
:100E5000089587E296E408958AE296E40895089555
:100E600096E0799FF001112494E5899FE00DF11D32
:100E70001124E60FF11DEE0FFF1FE257FE4F859183
:100E8000949108958238910549F1B0F48133910528
:100E900009F458C048F48932910509F44EC08A32E9
:100EA000910509F454C008958533910509F440C0B3
:100EB0008933910599F00895833E910529F138F41D
:100EC000803E910591F0823E9105A1F00895863E05
:100ED0009105F9F0873E910531F1089520911002B6
:100EE00020FD3AC021FD38C008958091100280FD98
:100EF00035C032C08091100282FF32C08091100252
:100F000084FD30C083EE39C08091100282FD28C07C
:100F1000F5CF8091100283FF27C08091100284FDDD
:100F200021C087EE2AC08091100283FD1DC0F5CF3D
:100F30008091100285FD1AC01BC08091100285FDB2
:100F400017C014C08091100286FD14C015C0809196
:100F5000100286FD11C00EC080EE0FC089E30DC0E7
:100F600082EE0BC080E009C086EE07C089E205C0B2
:100F700085E303C08AE201C081E390E0089508950B
:100F80000F931F93CF93FB012281211102C0C1E077
:100F900041C08C01C0916001C11125C085319047CD
:100FA000B1F70E94BF0781E0809360010E94751530
:100FB00090935F0180935E0110925301109255014E
:100FC000109254011092570110925601109259013B
:100FD0001092580110925B0110925A0110925D011B
:100FE00010925C0117C080915E0190915F010E9498
:100FF0008115883C910558F690915301E92FF0E056
:10100000EE0FFF1FEC5AFE4F118300839F5F9093FA
:101010005301C0E08C2FCF911F910F9108955698E6
:101020005E9825982D9826982E9827982F988FEFC0
:1010300090E0909389008093880090938B00809338
:101040008A0090938D0080938C00259A2D9A2FEF23
:1010500080E792E0215080409040E1F700C000001E
:10106000269A2E9A2FEF80E792E021508040904000
:10107000E1F700C00000279A2F9A2FEF80E792E057
:10108000215080409040E1F700C0000025982D9845
:101090002FEF80E792E0215080409040E1F700C0C0
:1010A000000026982E982FEF80E792E02150804094
:1010B0009040E1F700C0000027982F9856985E985E
:1010C00025982D9826982E9827982F98089589EA84
:1010D0008093800089E08093810024982C983F9829
:1010E0008AB18F748AB96E98479A8BB1806B8BB92D
:1010F000769A0E940F080C94360380E280930101D7
:101100008091610181110EC00E94BC0281E0809338
:1011100061012FEF83ED90E3215080409040E1F793
:1011200000C0000080E40E94C2028093010181118E
:101130002EC00E94EC0280930101811128C00E9400
:10114000EC0280930101811122C08FE30E94EC0226
:101150008093010181111BC00E94E40280E40E947F
:10116000C20280930101811112C08CE00E94EC0246
:101170008093010181110BC00E94EC028093010158
:10118000811105C08FE30E94EC02809301010E944F
:10119000E402809101010895282F882339F090E01E
:1011A0002A3010F44D9608950697089587E290E04E
:1011B000089580916201813079F050F08230F1F42D
:1011C00082EE0E947C0A87E50E947C0A87E514C0B3
:1011D00082EE0E947C0A12C080EE0E947C0A81EEA0
:1011E0000E947C0A88E10E947C0A88E10E944F0BE1
:1011F00081EE0E944F0B80EE0E944F0B8FE39CE923
:101200000197F1F700C000000895809162018130DC
:1012100029F010F0823041F482EE04C08CE20E948A
:101220007C0A8CE20C944F0B0895EF92FF921F936F
:10123000CF93DF937C01CCE0D0E0C7010C2E02C03D
:10124000969587950A94E2F78F700E94CC08182F24
:101250000E947C0A812F0E944F0B2497CC3F8FEF76
:10126000D80759F7DF91CF911F91FF90EF90089524
:10127000CF93DF93813020E8920768F0FB01228151
:10128000222349F0EC010E94D908CE019F770E94E9
:1012900015090E94050981E0DF91CF91089590938F
:1012A0006801809367010895E0916701F0916801FA
:1012B000309721F00190F081E02D099480E00895AD
:1012C000E0916701F0916801309721F00280F3818D
:1012D000E02D09940895E0916701F091680130973D
:1012E00021F00480F581E02D099408952091650195
:1012F000309166018217930771F090936601809395
:101300006501E0916701F0916801309721F0068056
:10131000F781E02D099408952091630130916401D3
:101320008217930771F09093640180936301E091B9
:101330006701F0916801309721F00084F185E02D7C
:101340000994089508950C94A2090E946C150E94B6
:1013500039030C94F215CF92DF92EF92FF920F9324
:101360001F93CF93DF93CDB7DEB72B970FB6F894CB
:10137000DEBF0FBECDBF0E9460038AE6C82E81E0AB
:10138000D82E00E010E0E02E802F0E944E04F601DF
:1013900041916F01F42EF826B1F40F5F1F4F0E300C
:1013A000110589F78FEF89838A831B820E94751547
:1013B0008160782F9D838C8349815A816B818D81D7
:1013C0000E944E0A40C09091DD0191FF04C08B87BE
:1013D0000E9454048B8520E030E04F2D50E0922F86
:1013E000BA01022E02C0759567950A94E2F760FF74
:1013F00024C02E83EF8221E030E0690102C0CC0CD2
:10140000DD1C9A95E2F790E08C219D21892B09F44F
:1014100020E028870E9475158160782F9A87898738
:101420004E815F8168858A850E944E0AF801E659DF
:10143000FE4F8081C826C08206C02F5F3F4F2630F6
:10144000310569F6AACF0E948517109169010E94A3
:1014500054091817A1F00E945409809369012B9632
:101460000FB6F894DEBF0FBECDBFDF91CF911F91B5
:101470000F91FF90EF90DF90CF900C949E052B96EC
:101480000FB6F894DEBF0FBECDBFDF91CF911F9195
:101490000F91FF90EF90DF90CF900895CF93DF935F
:1014A000CDB7DEB72B970FB6F894DEBF0FBECDBF1A
:1014B0004F83588769877A878B87DE01119686E08C
:1014C000FD0111928A95E9F785E0FE0137960190BA
:1014D0000D928A95E1F749815A816B817C818D81DA
:1014E0009E810E94A0102B960FB6F894DEBF0FBE0F
:1014F000CDBFDF91CF910895CF93882309F4CDC05C
:10150000C82F823859F40E94540981FDC6C089E36E
:101510000E947A130E94471489E30CC0833879F43F
:101520000E94540980FDB9C083E50E947A130E948D
:10153000471483E50E94BC13CF910C944714843860
:1015400059F40E94540982FDA8C087E40E947A13CE
:101550000E94471487E4EECF8CEF8C0F813A48F459
:101560008C2F0E94C919811198C08C2F0E947A1368
:10157000E3CF80E28C0F883048F4C77081E001C06F
:10158000880FCA95EAF70E940014D6CF8BE58C0F1E
:10159000833078F4C53A29F0C63A31F083E890E018
:1015A00005C081E890E002C082E890E0CF910C9401
:1015B000760988E58C0F853108F06FC0C83A61F173
:1015C000C93A69F1CA3A71F1CB3A79F1CC3A81F171
:1015D000CB3B89F1CC3B91F1CD3A99F1C03BA1F1E4
:1015E000CE3AA9F1CF3AB1F1C13BB9F1C23BC1F159
:1015F000C33BC9F1C43BD1F1C53BD9F1C63BE1F1D5
:10160000C73BE9F1C83BF1F1C93BF9F1CA3B09F429
:101610003FC080E090E03EC082EE90E03BC089EEAB
:1016200090E038C08AEE90E035C085EB90E032C0A3
:1016300086EB90E02FC083EB90E02CC084EB90E031
:1016400029C087EB90E026C08CEC90E023C08DECA5
:1016500090E020C083E891E01DC08AE891E01AC0C4
:1016600082E991E017C084E991E014C081E292E040
:1016700011C083E292E00EC084E292E00BC085E2EA
:1016800092E008C086E292E005C087E292E002C0E4
:101690008AE292E0CF910C948C09CF91089588232F
:1016A00009F44BC0823859F40E94540981FF45C0A7
:1016B00089E30E947A130E94471489E30CC083389F
:1016C00071F40E94540980FF38C083E50E947A13A8
:1016D0000E94471483E50E94BC130C94471484387D
:1016E00059F40E94540982FF28C087E40E947A13AB
:1016F0000E94471487E4EFCF9CEF980F913A58F37C
:1017000090E2980F983050F4877091E001C0990FE3
:101710008A95EAF7892F0E940614DFCF9BE5980F80
:10172000933020F480E090E00C947609885A85315B
:1017300020F480E090E00C948C090895882321F037
:101740000E9400140C9447140895882321F00E94ED
:1017500006140C94471408957F928F929F92AF9233
:10176000BF92CF92DF92EF92FF920F931F93CF938E
:10177000DF931F92CDB7DEB77C01C62E772EFC011A
:10178000058102950F70128111110E941D140E9493
:101790007313882379F0112369F080E28C0D88306F
:1017A00048F082E00E945C130E94731391E0D82EEF
:1017B000D92601C0D12CE72DE295EF70F0E0E85971
:1017C000FF4F0C949E22872D807F072D0F7088235A
:1017D00011F00295007F112399F0002309F494C1C0
:1017E00080E28C0D883010F0C11004C0802F0E9460
:1017F000001403C0802F0E9410140E94471484C15B
:101800008C2D0E944F0B002309F497C180E28C0DB0
:10181000883010F0C11004C0802F0E94061403C04D
:10182000802F0E9416140E94471487C1972D907F25
:10183000872D8F70903211F08295807FCC2021F01F
:10184000F1E0CF16B1F01EC0112349F0002309F4D6
:1018500014C1013009F011C10E9430146EC100237F
:1018600019F0013009F469C189830E943314898118
:101870000AC1112321F0023008F05FC1FEC001113E
:101880005CC101C1112321F0002309F4F6C03CC161
:10189000002309F4F8C03EC1872D86958695837094
:1018A00090E0009719F0019761F047C1112321F0F2
:1018B0008C2D972D937002C080E090E00E947609F5
:1018C0003CC1112321F08C2D972D937002C080E034
:1018D00090E00E948C0931C18C2D112319F00E94D7
:1018E0008D1602C00E94F5160E947A1726C1872D18
:1018F000837009F052C0111120C18C2D82958695FC
:101900008770880F880F9C2D9F70892E912CA12C99
:10191000B12C082E04C0880C991CAA1CBB1C0A946C
:10192000D2F7C4FE14C00FE010E020E030E0B901AF
:10193000A80104C0440F551F661F771F8A95D2F770
:10194000CB01BA01609570958095909503C060E0D9
:1019500070E0CB01272D26952695237030E02230AC
:10196000310569F02330310589F0682979298A2900
:101970009B292130310571F00E94E811DEC06829F1
:1019800079298A299B290E940412D7C00E94E81154
:10199000C501B4010E94CC11D0C0112319F0872DCC
:1019A000817001C08695882309F4C7C08C2D82956B
:1019B00086958770880F880F9C2D9F70892E912C9B
:1019C000A12CB12C082E04C0880C991CAA1CBB1C8D
:1019D0000A94D2F7C4FE14C00FE010E020E030E01B
:1019E000B901A80104C0440F551F661F771F8A95CF
:1019F000D2F7CB01BA01609570958095909503C0A0
:101A000060E070E0CB01272D269526952370422FAC
:101A100050E04230510569F04330510589F06829A2
:101A200079298A299B294130510571F00E94C212FF
:101A300084C0682979298A299B290E94DE127DC0E9
:101A40000E94C212C501B4010E94A61276C08C2D5C
:101A500090E0FC01E05EF109E531F10508F050C0CD
:101A6000E858FF4F0C949E220C2D0F70872D8F711C
:101A7000112331F00E943F12802F0E949E0B5DC007
:101A80000E946012802F0E94A50B57C0112339F0CD
:101A9000011153C0872D8F710E9485124EC00230F4
:101AA00008F04BC0F7CF112339F0872D8F710E94BA
:101AB0003F1243C01123C9F3872D8F710E9460121A
:101AC0003CC0112329F0872D8F710E942A1235C046
:101AD0000E94201232C0112351F0172D1F71812F47
:101AE0000E943F1263E0812F0E94531326C081E0C1
:101AF0000E945C13023008F182E00E945C131DC05A
:101B0000112331F0002389F28C2D0E947C0A15C02C
:101B1000002391F28C2D0E944F0B0FC0472D4F7068
:101B20006C2DC7010E9455040E94441106C0472D28
:101B30004F706C2DC7010E942F07DD20F9F00E9425
:101B40004F1380FD1BC0F70112820E9449130E94AF
:101B50003F12C7010E94CD0D0E9449130F90DF91E3
:101B6000CF911F910F91FF90EF90DF90CF90BF909A
:101B7000AF909F908F907F900C9460120F90DF91A8
:101B8000CF911F910F91FF90EF90DF90CF90BF907A
:101B9000AF909F908F907F9008950F931F93CF9356
:101BA000DF93EC01888199812B813C81232BB9F053
:101BB0009F3F11F48F3F99F0CE010E949204882339
:101BC00071F0688179818A810E9445138C010E949D
:101BD000FA120E94C111B801CE010E94AC0BDF9134
:101BE000CF911F910F9108950E941D140E942D14F2
:101BF0000E94F2130E9447140E942A180E947A172A
:101C000080E090E00E94760980E090E00C948C09DE
:101C10000E940D140C94F40D0E943A13E92FE295E2
:101C2000EF70F0E03297EE30F105B0F4E357FF4F7C
:101C30000C949E22803F91F018F4803E68F40EC010
:101C4000843F51F40BC0803E48F0813F29F406C028
:101C500093FB882780F9089580E0089581E0089536
:101C6000CF93DF9300D000D01F92CDB7DEB70F9097
:101C70000F900F900F900F90DF91CF910895CF9319
:101C8000DF9300D000D000D0CDB7DEB726960FB6D8
:101C9000F894DEBF0FBECDBFDF91CF9108951F93A3
:101CA000CF93DF93C091780116E080917901C81736
:101CB00099F0D0E01C9FF0011D9FF00D1124E65813
:101CC000FE4F4081518162817381848195810E94A0
:101CD0003F0E2196C770E9CFDF91CF911F910895F4
:101CE0004091AA015091AB016091AC017091AD019E
:101CF0008091AE019091AF010C943F0E8091AF01A5
:101D000082958F7009F054C08091AC01882309F44A
:101D10004FC080917801A09179016091AA017091E2
:101D2000AB014091AD015091AE01B6E08A1709F4C4
:101D30003FC090E041155105C1F17F3F11F46F3F65
:101D4000A1F1B89FF001B99FF00D1124E658FE4FA4
:101D5000218172132AC02081621327C022812111A0
:101D600024C0238134812417350710F42150310910
:101D7000241B350B283C3105C0F42091AF012F7096
:101D800020612093AF0126E0289FF001299FF00DEC
:101D90001124E158FE4F80818F70806180838AEA30
:101DA00091E00E94CD0D0C944F0E01968770BECF2E
:101DB0000895CF92DF92EF92FF920F931F93CF93EC
:101DC000DF93CDB7DEB762970FB6F894DEBF0FBED4
:101DD000CDBF8C0185E0F801DE011D9601900D92CA
:101DE0008A95E1F7D8014C9111965C911197129662
:101DF0006C9112971396CD90DC9014973091AA01B4
:101E00007091AB018091AD019091AE01009709F402
:101E10006BC17F3F19F43F3F09F466C1E090AC010C
:101E2000EE2009F4C0C02091AF01C816D90628F0F1
:101E3000F601E81BF90BCF0104C0809590958C0D3D
:101E40009D1DFF24F394883C910578F0F12C207FB0
:101E500009F0C6C07C2DD98AC88A89890E94300EB3
:101E60008AEA91E00E94CD0DB1C0822F807F09F0F7
:101E700046C0751314C0341312C0611110C02F7006
:101E800020612093AF010E94700E8AEA91E00E94C7
:101E9000CD0D8091AF01D80115968C932EC0CD2821
:101EA00019F15F3F11F44F3FF9F0F62E61111CC09C
:101EB000809178012091790136E0821709F45AC0A7
:101EC00090E0389FF001399FF00D1124E658FE4F45
:101ED0007181571306C07081471303C0728171115D
:101EE00003C001968770E9CFF62E662309F418C166
:101EF0008091AF0181608093AF01F12C11C1751306
:101F000008C0341306C0611104C08091AF01D8012C
:101F1000C3C04D875E878D859E856A8B0E940C0E9F
:101F20006A898823E1F16623D1F12091AF01822FE4
:101F300082958F7090E0029774F08091AA01909141
:101F4000AB0198878F831986DB86CA862C87CE01E2
:101F500007960E94CD0D86E0F801AAEAB1E0019053
:101F60000D928A95E1F70E947E0E0E94700EFF246A
:101F7000F394D6C04D875E878D859E850E943A1367
:101F8000292F22952F7030E0223031050CF0BCC093
:101F90009F7009F0B6C0805E883008F4C1C0C801E7
:101FA0000E94CD0DE4CFC816D90608F453C0F6013F
:101FB000E81BF90BCF01883C910508F450C0F12CC7
:101FC0007C2DD98AC88A89890E94300EEAEAF1E01C
:101FD00086E0DF011D928A95E9F70E94700EA0C08D
:101FE000751314C0341312C0611110C08091AF0179
:101FF000F8018583C8010E94CD0D86E0EAEAF1E090
:10200000DF011D928A95E9F7FE2C8AC04D875E8715
:102010008D859E856A8B0E940C0E6A89882309F43F
:10202000BECF662309F4BBCF2091AF01822F8295EA
:102030008F7090E002970CF48ECF8091AA0190915E
:10204000AB019A8389831B82DD82CC822E83CE01F1
:1020500001967FCF809590958C0D9D1DACCFF62E6F
:10206000662309F49CCF75132EC034132CC0209125
:10207000AF0120FD1FC0822F82958F70D9F0D8014B
:1020800015962C9315978F3049F08F5F982F929566
:10209000907F822F8F70892B15968C93C8010E9498
:1020A000CD0D86E0F801AAEAB1E001900D928A9583
:1020B000E1F793CF86E0F801AAEAB1E001900D9232
:1020C0008A95E1F72DC04D875E878D859E850E949C
:1020D0000C0E811140CF8091AF0181608093AF01E0
:1020E000C8010E94CD0D1CC0662309F458CF4D874E
:1020F0005E878D859E850E940C0E882309F44FCF44
:102100002ACF811148CF0CC0243031050CF047CFC5
:102110009F7009F440CFF8019581907F09F03BCF83
:102120008F2D62960FB6F894DEBF0FBECDBFDF9144
:10213000CF911F910F91FF90EF90DF90CF90089576
:102140001F93CF93DF93CDB7DEB72C970FB6F894DC
:10215000DEBF0FBECDBF4F83588769877A878B87D5
:102160009C87CE0107960E94D90E882369F08F8143
:1021700098852A853B85232BF1F19F3F09F063C0A9
:102180008F3F09F060C037C086E0FE013796DE0160
:10219000119601900D928A95E1F76F817885EA8515
:1021A000FB85309741F17F3F11F46F3F21F1209182
:1021B000790130E0C9010196877099274091780133
:1021C00050E08417950709F447C069837A83FD833B
:1021D000EC8396E0929FD001939FB00D1124A658F6
:1021E000BE4FFE01319601900D929A95E1F78093D2
:1021F00079010E944F0E16E080917801909179014B
:102200008917C1F1189FC001112486589E4F0E9462
:10221000D90E882379F1E09178011E9FF0011124F5
:10222000E658FE4F4081518162817381848195819E
:102230000E943F0E8091780190E001968770992767
:1022400080937801D9CF4F81588569857A858B85B0
:102250009C850E943F0ECFCF0E94080E10927901FC
:1022600010927801EAEAF1E086E0DF011D928A959A
:10227000E9F7C1CF2C960FB6F894DEBF0FBECDBFE5
:10228000DF91CF911F910895EF92FF920F931F93CB
:10229000CF93DF938C01892B09F46CC0F12CEE24D1
:1022A000E394E8012196F8018491843740F4843066
:1022B00008F051C0813081F0823019F15BC0853760
:1022C00009F444C0A8F19CE7980F903708F052C079
:1022D0008F770E944F0B41C00E5F1F4FFE01C491CC
:1022E00080E28C0F883048F4C7708E2D01C0880FB3
:1022F000CA95EAF70E94201414C08C2F0E947C0A11
:102300002DC00E5F1F4FFE01C49180E28C0F8830FC
:1023100058F4C7708E2D01C0880FCA95EAF70E9445
:1023200026140E9447141AC08C2F0E944F0B16C00F
:102330000E5F1F4FFE01C491CC2381F08FE99FE017
:102340000197F1F700C00000C150F6CF0E5F1F4F9C
:10235000FE01F49003C00E947C0A8E018F2D882319
:1023600009F49FCFEFE9FFE03197F1F700C00000DB
:102370008150F5CFDF91CF911F910F91FF90EF909A
:10238000089508956093B4017093B5018093B601E8
:102390009093B7010C94F40D0F931F930091B40127
:1023A0001091B5012091B6013091B701DC01CB014C
:1023B000802B912BA22BB32B8093B4019093B5016A
:1023C000A093B601B093B7011F910F910C94F40D37
:1023D0000F931F930091B4011091B5012091B601A4
:1023E0003091B701DC01CB0180239123A223B323D9
:1023F0008093B4019093B501A093B601B093B70157
:102400001F910F910C94F40D0F931F930091B40141
:102410001091B5012091B6013091B701DC01CB01DB
:1024200080279127A227B3278093B4019093B50109
:10243000A093B601B093B7011F910F910C94F40DC6
:102440001092B0011092B1011092B2011092B3013A
:102450000C94F40D41E050E060E070E004C0440FE3
:10246000551F661F771F8A95D2F74093B00150938E
:10247000B1016093B2017093B3010C94F40D41E08B
:1024800050E060E070E004C0440F551F661F771FE6
:102490008A95D2F78091B0019091B101A091B201DB
:1024A000B091B301482B592B6A2B7B2B4093B00181
:1024B0005093B1016093B2017093B3010C94F40D89
:1024C00041E050E060E070E004C0440F551F661F1B
:1024D000771F8A95D2F740955095609570958091B9
:1024E000B0019091B101A091B201B091B301482324
:1024F00059236A237B234093B0015093B101609329
:10250000B2017093B3010C94F40D41E050E060E02F
:1025100070E004C0440F551F661F771F8A95D2F7DD
:102520008091B0019091B101A091B201B091B3013D
:10253000482759276A277B274093B0015093B10160
:102540006093B2017093B3010C94F40D0F931F9339
:102550000091B0011091B1012091B2013091B3010D
:10256000DC01CB01802B912BA22BB32B8093B001EC
:102570009093B101A093B201B093B3011F910F9159
:102580000C94F40D0F931F930091B0011091B101C1
:102590002091B2013091B301DC01CB018023912362
:1025A000A223B3238093B0019093B101A093B20111
:1025B000B093B3011F910F910C94F40D0F931F93DF
:1025C0000091B0011091B1012091B2013091B3019D
:1025D000DC01CB0180279127A227B3278093B0018C
:1025E0009093B101A093B201B093B3011F910F91E9
:1025F0000C94F40D0895CF92DF92EF92FF920F9317
:102600001F93CF93DF938C01C090B401D090B5019C
:10261000E090B601F090B7018091B0019091B101C6
:10262000A091B201B091B301C82AD92AEA2AFB2AA3
:10263000CFE1D0E0D701C6010C2E04C0B695A79516
:10264000979587950A94D2F780FF06C0B8018C2F22
:102650000E94A005019721F4219760F780E001C056
:102660008C2FDF91CF911F910F91FF90EF90DF9012
:10267000CF900895CF93DF93EC010E94FB12BE012F
:102680000E94A005DF91CF910895CB010E943A13DB
:1026900008958091B80185958595859508958091D7
:1026A000B8018770089598E0899F90011124262B26
:1026B0002093B8010C943F122091B8018095822399
:1026C0008093B801982F977069F430E0482F082E56
:1026D000000C550B2417350729F0859585958595B0
:1026E0000C94601208959091B801977081E009F4FC
:1026F00080E0089590911401992321F090911002A7
:1027000097FD09C02091020130910301F901329631
:102710009FEF40E01FC0982F9695969596959F3114
:1027200050F5E0910201F0910301E90FF11D87706E
:1027300021E030E0A90102C0440F551F8A95E2F75D
:10274000CA019181892B818308959F3F39F04F5FA2
:102750004E3141F051915813F8CF0DC05111F7CFC0
:10276000942FF5CF9F3F39F0F901E90FF11D97FD47
:10277000FA9582830895089590911401992321F088
:102780009091100297FD09C0209102013091030140
:10279000F9013296205E3F4F1FC0982F969596956F
:1027A00096959F31F0F4E0910201F0910301E90F59
:1027B000F11D877021E030E0A90102C0440F551FD0
:1027C0008A95E2F7CA0180959181892381830895D2
:1027D0003196E217F30729F090819813F9CF108210
:1027E000F7CF089581E090E0E0910201F0910301BC
:1027F000E80FF91F1082019680329105A9F708951C
:102800009091DC01892B8093DC0108958095909153
:10281000DC0189238093DC0108951092DC01089586
:102820009091DB01892B8093DB0108958095909135
:10283000DB0189238093DB0108951092DB01089569
:102840009091DA01892B8093DA0108958095909117
:10285000DA0189238093DA0108951092DA0108954C
:102860008093B90108951092B901089580910201F1
:1028700090910301FC0131969C01205E3F4F80E066
:10288000919191118F5FE217F307D1F70895E091CD
:102890000201F09103018091DC018083E09102014B
:1028A000F091030190818091DB01892B8083E0917D
:1028B0000201F091030190818091DA01892B8083DC
:1028C0008091B901882361F0E0910201F091030148
:1028D0009081892B80830E94361481111092B90156
:1028E00080910201909103010C946009CF92DF92D4
:1028F000EF92FF926C01EE24FF24C114D104E10495
:10290000F10421F0C701B60120E101C020E0C72E8B
:10291000D82EE92EFF24C114D104E104F10419F0EA
:10292000285FC701B6016B017C0154E0F694E7947F
:10293000D794C7945A95D1F7C114D104E104F10496
:1029400019F02C5FC701B6016B017C0142E0F694DF
:10295000E794D794C7944A95D1F7C114D104E10400
:10296000F10419F02E5FC701B601DC01CB01B69569
:10297000A79597958795892B8A2B8B2B09F02F5F2D
:10298000822FFF90EF90DF90CF9008956DEE7EEF55
:1029900080E090E00E94D82260E082E090E00E9417
:1029A000C62260E083E090E00E94C62260E084E0FE
:1029B00090E00E94C62260E085E090E00C94C62280
:1029C00080E090E00E94C02221E08D3E9E4F09F001
:1029D00020E0822F089582E090E00C94B82283E0FA
:1029E00090E00C94B82284E090E00C94B822682F18
:1029F00084E090E00C94C62280911602843039F174
:102A00001092DE0120E488E190E00FB6F894A895DA
:102A1000809360000FBE2093600080E00E949E05BE
:102A200083B7817F846083BF83B7816083BF7894DD
:102A3000889583B78E7F83BF0FB6F894A895809151
:102A40006000886180936000109260000FBE08955E
:102A50000895CF930E944D030E9460030E942815A1
:102A6000C0E08C2F0E944E04811104C0CF5FCE3095
:102A7000C1F701C081E0CF9108950E94080E0E9425
:102A800054090C949E051F920F920FB60F921124B9
:102A90008F939F93AF93BF938091DE01811113C0F9
:102AA0008091DF019091E001A091E101B091E201FC
:102AB0004196A11DB11D8093DF019093E001A09389
:102AC000E101B093E201BF91AF919F918F910F907F
:102AD0000FBE0F901F90189582E084BD93E095BDC6
:102AE0009AEF97BD80936E0008952FB7F894809168
:102AF000DF019091E001A091E101B091E2012FBFCF
:102B00000895CF92DF92EF92FF920F931F932FB70A
:102B1000F8944091DF015091E0016091E1017091E2
:102B2000E2012FBF6A017B01EE24FF248C0120E02B
:102B300030E0C016D106E206F30610F44150510908
:102B40009A01281B390BC9011F910F91FF90EF903B
:102B5000DF90CF9008951F920F920FB60F9211241D
:102B60008F939F93AF93BF938091DF019091E0018A
:102B7000A091E101B091E2010196A11DB11D8093E8
:102B8000DF019093E001A093E101B093E201BF91D6
:102B9000AF919F918F910F900FBE0F901F9018953E
:102BA0000E945B1EF8942FEF87EA91E62150804047
:102BB0009040E1F700C0000087E090EBDC018093DB
:102BC0001F0290932002A0932102B09322029CE066
:102BD00088E10FB6F894A895809360000FBE90939B
:102BE0006000FFCF0E94E014811102C00E94C61451
:102BF0000E94EB148093DD010E94F31490E0909307
:102C00001102809310020E94EF14682F70E080E0A0
:102C100090E00C94C2118091E50180FF0BC060919F
:102C2000070185E0689FB00111247595679575953A
:102C300067952BC081FF09C06091070185E0689FFF
:102C4000B00111247595679520C082FF07C060917F
:102C5000070185E0689FB001112417C09091E6013B
:102C60009923D1F060910601961788F7209107010A
:102C700085E0289F90011124929FA001939F500D01
:102C8000112470E0CA010E948A226038710540F464
:102C90006115710539F002C065E070E0862F089576
:102CA0008FE7089581E008958091E50180FF08C0D5
:102CB0006091050170E0759567957595679521C0E0
:102CC00081FF06C06091050170E07595679519C098
:102CD00082FF04C06091050170E010C09091E60190
:102CE0009923C1F0609104019617A0F78091050126
:102CF000899FC001112470E00E948A22603871050A
:102D000028F46115710521F0862F08958FE7089545
:102D100081E0089561E070E0F4CF803F21F40E94EB
:102D20000B16819504C0813F29F40E940B168093F5
:102D3000E9010895823F21F40E940B16819504C099
:102D4000833F29F40E940B168093E8010895893F80
:102D500019F40E94541605C08A3F31F40E9454169B
:102D600081958093EA0108958B3F21F40E945416C7
:102D7000819504C08C3F29F40E9454168093EB0186
:102D80000895843F21F48091E701816017C0853F59
:102D900021F48091E701826011C0863F21F4809187
:102DA000E70184600BC0873F21F48091E7018860D0
:102DB00005C0883F31F48091E70180618093E7018D
:102DC00008958D3F21F48091E50181600BC08E3F15
:102DD00021F48091E501826005C08F3F29F4809144
:102DE000E50184608093E5010895803F39F4809186
:102DF000E90187FF6CC01092E90169C0813F29F4A5
:102E00008091E9011816BCF362C09091E801823FFD
:102E100029F497FF5CC01092E80159C0833F19F470
:102E20001916CCF354C0893F41F48091EA01181679
:102E30000CF04DC01092EA014AC08A3F29F48091FB
:102E4000EA0187FF44C0F6CF8B3F39F48091EB0154
:102E500087FF3DC01092EB013AC08C3F29F480916E
:102E6000EB011816BCF333C0843F21F48091E701D5
:102E70008E7F17C0853F21F48091E7018D7F11C0BF
:102E8000863F21F48091E7018B7F0BC0873F21F4BF
:102E90008091E701877F05C0883F31F48091E70189
:102EA0008F7E8093E70113C08D3F21F48091E5016F
:102EB0008E7F0BC08E3F21F48091E5018D7F05C090
:102EC0008F3F29F48091E5018B7F8093E50180910C
:102ED000E80181110EC08091E90181110AC0809141
:102EE000EA01811106C08091EB01811102C01092AC
:102EF000E601089587EE91E00E946B090E94751526
:102F00009093E4018093E30108951F93CF93DF939F
:102F10008091E3019091E4010E948115AC019091B0
:102F2000E601992321F02091080130E006C02091AC
:102F300009018AE0289F900111244217530708F4E1
:102F400085C08091E801C091E901D091EA0110911A
:102F5000EB01811107C0C11175C0D11173C01111EE
:102F600071C074C09F3F19F09F5F9093E6011816DF
:102F700024F40E940B168093E8018091E80187FFFA
:102F800005C00E940B1681958093E8011C1624F45D
:102F90000E940B168093E9018091E90187FF05C02B
:102FA0000E940B1681958093E9016091E8016623E8
:102FB00031F1C091E901CC2311F1062E000C770B01
:102FC000880B990B0E94912123E333E343E35FE3F2
:102FD0000E94F5210E9459216093E8016C2FCC0FCB
:102FE000770B880B990B0E94912123E333E343E392
:102FF0005FE30E94F5210E9459216093E9011D16AB
:1030000024F40E9454168093EA018091EA0187FF1C
:1030100005C00E94541681958093EA01111624F48C
:103020000E9454168093EB018091EB0187FF05C04D
:103030000E94541681958093EB01DF91CF911F91EF
:103040000C947A179F3F09F08FCF97CFDF91CF91E4
:103050001F910895E7EEF1E085E0DF011D928A956A
:10306000E9F71092E6011092E5010895833081F1AD
:1030700028F4813059F08230D1F00895853009F478
:1030800049C0B8F1863009F456C00895809109010D
:10309000262F30E0280F311D2F3F310524F4680F13
:1030A0006093090108958FEF80930901089580913D
:1030B0000801262F30E0280F311D2F3F310524F461
:1030C000680F6093080108958FEF809308010895B9
:1030D00080910701262F30E0280F311D2F3F310549
:1030E00024F4680F6093070108958FEF8093070120
:1030F000089580910601262F30E0280F311D2F3FC3
:10310000310524F4680F6093060108958FEF8093D2
:103110000601089580910501262F30E0280F311D0A
:103120002F3F310524F4680F6093050108958FEF58
:1031300080930501089580910401262F30E0280F27
:10314000311D2F3F310524F4680F60930401089569
:103150008FEF809304010895833011F128F48130BA
:1031600049F0823091F00895853081F120F1863068
:10317000C1F1089580910901681720F4861B80939E
:1031800009010895109209010895809108016817B6
:1031900020F4861B80930801089510920801089579
:1031A00080910701681720F4861B8093070108951A
:1031B00010920701089580910601681720F4861B7C
:1031C00080930601089510920601089580910501EB
:1031D000681720F4861B809305010895109205015D
:1031E000089580910401681720F4861B80930401E0
:1031F00008951092040108950F931F93873208F0E9
:103200004DC08E3108F097C0803109F481C008F5B7
:10321000873009F46BC068F4863009F0A7C080914C
:10322000DD01817F8E7F8093DD0181E08093ED0160
:103230009EC08B3009F493C08E3009F097C0809106
:10324000DD0182FB222720F991E0922790FB82F991
:1032500068C0863109F483C088F4813109F086C0E2
:103260000E94080E8091100287FB222720F991E02E
:10327000922790FB87F98093100271C0893109F47D
:103280006EC08B3109F072C08091DD0181FB222775
:1032900020F991E0922790FB81F943C0883309F42B
:1032A0005EC050F4893209F45CC0853309F459C01A
:1032B000873209F456C05AC0833409F452C028F446
:1032C0008A3308F453C0895337C0883409F04EC09C
:1032D0000E94080E0FEF13ED20E301501040204034
:1032E000E1F700C000000E94D01539C09091DD01C7
:1032F000892F8095817080FB90F929F09660986005
:103300009093DD0134C0997F977F9093DD0127C0B2
:103310008091DD0183FB222720F991E0922790FB29
:1033200083F98093DD019923D1F08091DD018160E3
:103330008093DD0114C08D5141E050E060E070E009
:103340008A019B0104C0000F111F221F331F8A95A1
:10335000D2F7C901B8010E94C2110E94080E81E093
:1033600006C061E070E080E090E0F5CF80E01F9162
:103370000F91089580E0089580E008958E518A307D
:1033800030F4E82FF0E0EB5EFE4F8081089580E09E
:103390000895CF93C82F8091ED01813079F018F016
:1033A0008230E9F186C0E0910201F0910301808151
:1033B000813169F0823209F07EC009C0E0910201DA
:1033C000F09103018081813111F0823261F48C2F00
:1033D0000E94BA19811104C08C2F0E94FC181DC0D4
:1033E00081E090E01AC08C2F0E94BC19811114C09A
:1033F000C43179F048F4CB3079F0C03109F05FC0C6
:1034000082E08093ED0108C0C93219F0C83321F081
:1034100056C01092ED0153C081E0817052C0C93294
:1034200081F110F5C43169F1A8F4C73009F045C045
:103430008AE08093090194E19093080193E09093CE
:1034400007018093060188E08093050188E280935C
:10345000040133C082EE8C0F863078F58C2F0E94E9
:10346000BE198093EC0129C0CE34E9F020F4CB34AE
:1034700021F56AE013C0C13579F0C235F1F461E09D
:103480000DC08091EC01882319F01092EC0115C059
:1034900081E08093ED0115C061E006C08091EC01F0
:1034A0000E9436180AC06AE08091EC010E94AC18B4
:1034B00004C01092ED0180E004C081E002C080E011
:1034C000ACCFCF91089580910E020895CF93DF93F2
:1034D00000D01F92CDB7DEB79C01809116028430D8
:1034E00019F593E099833B832A839093E9008FEF4A
:1034F0009091E800815095FD06C095ED9A95F1F701
:1035000000008111F5CF8091E80085FF0DC040E0FB
:1035100050E063E070E0CE0101960E94C61C8091ED
:10352000E8008E778093E8000F900F900F90DF9166
:10353000CF910895CF93DF9300D01F92CDB7DEB720
:1035400020911602243021F522E029839B838A836F
:1035500083E08093E9008FEF9091E800815095FD22
:1035600006C095ED9A95F1F700008111F5CF809195
:10357000E80085FF0DC040E050E063E070E0CE0160
:1035800001960E94C61C8091E8008E778093E80027
:103590000F900F900F90DF91CF9108952091160218
:1035A0002430F1F422E02093E9002FEF3091E8007D
:1035B000215035FD06C035ED3A95F1F70000211197
:1035C000F5CF2091E80025FF0BC040E050E065E01A
:1035D00070E00E94C61C8091E8008E778093E8001E
:1035E0000895CF93DF93EC0190911602943009F087
:1035F00046C0809114018823D9F08091100287FF82
:1036000017C09093E9008FEF9091E800815095FDED
:1036100006C095E19A95F1F700008111F5CF8091F0
:10362000E80085FF2CC040E050E060E270E017C089
:1036300081E08093E9008FEF9091E800815095FD43
:1036400006C095ED9A95F1F700008111F5CF8091B4
:10365000E80085FF14C040E050E068E070E0CE0173
:103660000E94C61C8091E8008E778093E80080E27B
:10367000FE01AEEEB1E001900D928A95E1F7DF9187
:10368000CF91089580911502811109C00E945B1E9F
:103690000E94B81E8091E20084608093E200089549
:1036A000109215020895089508950C943D1542E076
:1036B00061EC81E00E94D51D42E061EC82E00E9455
:1036C000D51D42E061EC83E00E94D51D42E261EC31
:1036D00084E00C94D51D80911802833009F455C004
:1036E00030F4813071F0823009F48EC008958A3050
:1036F00009F47AC08B3009F460C0893009F09CC0AD
:1037000020C080911702813A09F096C08091E800AC
:10371000877F8093E80080911B0290911C02892B87
:1037200021F460E28EEE91E003C060E080E090E082
:1037300070E00E94111D8091E8008B778093E80073
:10374000089580911702813209F076C080911B02A2
:1037500090911C02009719F0039709F06DC08091B9
:10376000E800877F8093E8008091E80082FD05C033
:10377000809116028111F8CF5FC08091F100809393
:103780000E028091E8008B7753C080911702813A36
:1037900009F052C080911B0290911C02892B09F004
:1037A0004BC08091E800877F8093E8008091E8001B
:1037B00080FFFCCF8091140136C0809117028132C6
:1037C000D9F580911B0290911C02892BA9F580915B
:1037D000E800877F8093E8000E940A1E809119020A
:1037E000809314010C94080E80911702813221F508
:1037F0008091E800877F8093E8000E940A1E8091F4
:103800001A0280930F02089580911702813AA1F461
:103810008091E800877F8093E8008091E80080FF36
:10382000FCCF80910F028093F1008091E8008E77A9
:103830008093E8000C940A1E089584B7877F84BFA4
:103840000FB6F894A895809160008861809360001D
:10385000109260000FBE80E88093610010926100BA
:103860000E94A3090E945B1E0E94B81E8091E20084
:1038700084608093E20078940E943E210E94A50912
:103880008AE091E00E944F0980911602853069F428
:103890000E94FC14809114028823B1F30E94291520
:1038A000882391F30E94B01CEFCF0E94AB09ECCFAC
:1038B000292F332723303105C9F064F42130310535
:1038C00081F02230310509F043C08DE690E02AE610
:1038D00033E042C021323105F1F02232310541F1AD
:1038E00037C082E190E027ED33E036C09927813080
:1038F000910541F08230910541F0892B49F5E6E6CA
:10390000F3E005C0EEE4F3E002C0E6E3F3E0849107
:1039100090E09F0121C06430D8F4E62FF0E0EE0F74
:10392000FF1FE55DFE4F2081318189E090E014C0EA
:10393000643070F470E0FB01EE0FFF1FED5DFE4F91
:1039400020813181FB01E15EFE4F808190E004C067
:1039500080E090E020E030E0FA0131832083089598
:1039600080E189BD82E189BD09B400FEFDCF80916F
:10397000D8008F7D8093D8008091E0008260809392
:10398000E0008091E00081FDFCCF0895CF92DF92AE
:10399000EF92FF920F931F93CF93DF93EC018B0174
:1039A0006A010E94291E811133C0C114D10439F06B
:1039B000F60180819181081B190BC80FD91FE12CDA
:1039C000F12C0115110519F18091E80085FD16C053
:1039D0008091E8008E778093E800C114D10449F00B
:1039E000F60180819181E80EF91EF182E08285E086
:1039F0000FC00E94291E882321F30AC08991809359
:103A0000F10001501109FFEFEF1AFF0ADACF80E051
:103A1000DF91CF911F910F91FF90EF90DF90CF90AA
:103A2000089520911D0230911E022617370748F095
:103A30006115710539F42091E8002E772093E80094
:103A400001C0B90140E061157105A9F1209116028C
:103A5000222309F443C0253009F442C02091E80034
:103A600023FD40C02091E80022FD32C02091E800F3
:103A700020FFE9CF4091F3002091F20030E0342B99
:103A8000FC01CF016115710559F02830310540F472
:103A900081918093F100615071092F5F3F4FF1CF09
:103AA00041E02830310509F040E02091E8002E7710
:103AB0002093E800C8CF4111C9CF0AC080911602F7
:103AC000882361F0853061F08091E80083FD0AC0B1
:103AD0008091E80082FFF2CF80E0089582E00895AF
:103AE00083E0089581E0089520911D0230911E0227
:103AF0002617370748F06115710539F42091E80061
:103B00002E772093E80001C0B901FC0120E0611587
:103B1000710591F180911602882309F440C0853027
:103B200009F43FC08091E80083FD3DC08091E8002A
:103B300082FD2FC08091E80080FFE9CF2091F30043
:103B40008091F20090E0922B6115710559F0883058
:103B5000910540F424912093F10031966150710950
:103B60000196F2CF21E0089709F020E08091E8006B
:103B70008E778093E800CBCF2111CCCF0AC0809103
:103B80001602882361F0853061F08091E80083FDA2
:103B90000AC08091E80082FFF2CF80E0089582E0C1
:103BA000089583E0089581E00895982F973058F59F
:103BB0009093E900981739F07091EC002091ED0096
:103BC0005091F00003C0242F762F50E021FF19C040
:103BD0003091EB003E7F3093EB003091ED003D7F64
:103BE0003093ED003091EB0031603093EB00709337
:103BF000EC002093ED005093F0002091EE0027FFA1
:103C000007C09F5FD3CF8F708093E90081E0089554
:103C100080E008958091170287FF11C08091E8002D
:103C200082FD05C0809116028111F8CF11C08091EC
:103C3000E8008B770BC080911602882349F08091B1
:103C4000E80080FFF8CF8091E8008E778093E8004D
:103C500008952091E4003091E50095E64091EC0054
:103C6000842F817040FF22C08091E80080FD1CC03D
:103C700080911602882391F0853091F08091EB00BD
:103C800085FD10C04091E4005091E50042175307B4
:103C900029F39A01915011F784E0089582E0089584
:103CA00083E0089581E0089580E008954091E80060
:103CB00042FFDECF08950E94C91E0E94D11EE0EE91
:103CC000F0E0808181608083E8EDF0E080818F7793
:103CD000808319BCA7EDB0E08C918E7F8C9380819E
:103CE0008F7E80831092150208950F931F93CF93B8
:103CF000DF930E94C91E0E94D11EC8EDD0E08881CA
:103D00008F77888388818068888388818F7D888386
:103D100019BC109216021092120210921402109204
:103D2000130200EE10E0F80180818B7F8083888190
:103D30008160888342E060E080E00E94D51DE1EE72
:103D4000F0E080818E7F8083E2EEF0E08081816010
:103D50008083808188608083F80180818E7F80836A
:103D6000888180618883DF91CF911F910F910895A1
:103D7000E8EDF0E080818F7E8083E7EDF0E08081E8
:103D80008160808384E082BF81E0809315020C947F
:103D9000751EE8EDF0E080818E7F80831092E20056
:103DA00008951092DA001092E10008951F920F9288
:103DB0000FB60F9211242F933F934F935F936F93FE
:103DC0007F938F939F93AF93BF93EF93FF938091D4
:103DD000E10082FF0BC08091E20082FF07C080916A
:103DE000E1008B7F8093E1000E943D218091DA0009
:103DF00080FF1FC08091D80080FF1BC08091DA0037
:103E00008E7F8093DA008091D90080FF0DC080E121
:103E100089BD82E189BD09B400FEFDCF81E08093B8
:103E200016020E94421B05C019BC109216020E9485
:103E3000501B8091E10080FF19C08091E20080FF5B
:103E400015C08091E2008E7F8093E2008091E200B5
:103E500080618093E2008091D80080628093D800D6
:103E600019BC85E0809316020E94541B8091E100EA
:103E700084FF30C08091E20084FF2CC080E189BDC6
:103E800082E189BD09B400FEFDCF8091D8008F7D0D
:103E90008093D8008091E1008F7E8093E100809133
:103EA000E2008F7E8093E2008091E2008160809347
:103EB000E20080911202882311F084E007C0809113
:103EC000E30087FD02C081E001C083E08093160219
:103ED0000E94551B8091E10083FF29C08091E20080
:103EE00083FF25C08091E100877F8093E10082E01D
:103EF00080931602109212028091E1008E7F8093CF
:103F0000E1008091E2008E7F8093E2008091E200E8
:103F100080618093E20042E060E080E00E94D51D75
:103F20008091F00088608093F0000E94531BFF9105
:103F3000EF91BF91AF919F918F917F916F915F9121
:103F40004F913F912F910F900FBE0F901F9018959A
:103F50001F920F920FB60F9211242F933F934F93FE
:103F60005F936F937F938F939F93AF93BF93CF9301
:103F7000DF93EF93FF93C091E900CF708091EC0045
:103F8000D82FD17080FDD0E81092E9008091F00028
:103F9000877F8093F00078940E94EC1F1092E900D4
:103FA0008091F00088608093F000CD2BCF70C0939B
:103FB000E900FF91EF91DF91CF91BF91AF919F9178
:103FC0008F917F916F915F914F913F912F910F90C2
:103FD0000FBE0F901F9018951F93CF93DF93CDB70F
:103FE000DEB7AA970FB6F894DEBF0FBECDBFE7E1EC
:103FF000F2E088E08E0F9091F10091938E13FBCF49
:104000000E946B1B8091E80083FF1FC18091170203
:1040100090911802492F50E04A30510508F015C11F
:10402000FA01E556FF4F0C949E22803881F08238C9
:1040300009F00BC180911B028F708093E900809181
:10404000EB0085FB882780F91092E90006C080917B
:10405000130290911402911182609091E800977F71
:104060009093E8008093F1001092F100C8C0282FCF
:104070002D7F09F0EAC0882319F0823061F0E5C095
:1040800080911902813009F0E0C0933009F080E09E
:10409000809314022BC080911902811127C0809156
:1040A0001B028F7009F4D1C08093E9002091EB00CE
:1040B00020FF1CC0933021F48091EB00806214C07B
:1040C0009091EB0090619093EB0021E030E0A9012A
:1040D00002C0440F551F8A95E2F74093EA00109200
:1040E000EA008091EB0088608093EB001092E90079
:1040F0008091E800877F86C08111A7C010911902C6
:104100001F778091E3008078812B8093E30080917A
:10411000E800877F8093E8000E940A1E8091E800F3
:1041200080FFFCCF8091E30080688093E300111151
:1041300002C082E001C083E08093160286C08058EE
:10414000823008F082C08091190290911A028C3D51
:1041500053E0950779F583E08A838AE289834FB734
:10416000F894DE01139620E03EE051E2E32FF0E008
:1041700050935700E49120FF03C0E295EF703F5F3A
:10418000EF708E2F90E0EA3010F0C79601C0C09615
:104190008D939D932F5F243149F74FBF8091E800A5
:1041A000877F8093E8006AE270E0CE0101960E946A
:1041B000111D14C0AE014F5F5F4F60911B020E9442
:1041C000581CBC01892B09F440C09091E800977FEE
:1041D0009093E80089819A810E94741D8091E80083
:1041E0008B778093E80031C0803879F58091E800C2
:1041F000877F8093E800809112028093F100809184
:10420000E8008E778093E8000E940A1E1EC081118C
:104210001CC0909119029230C0F48091E800877F11
:104220008093E800909312020E940A1E809112026D
:10423000811106C08091E30087FD02C081E001C0CA
:1042400084E0809316020E94571B8091E80083FF50
:104250000AC08091E800877F8093E8008091EB009E
:1042600080628093EB00AA960FB6F894DEBF0FBE73
:10427000CDBFDF91CF911F9108950895CF93809185
:1042800016028823A1F0C091E900CF709091EC0054
:10429000892F817090FD80E8C82B1092E9008091F1
:1042A000E80083FD0E94EC1FCF70C093E900CF911E
:1042B00008950E9460216894B1110C94EF21089533
:1042C0000E94D42188F09F5798F0B92F9927B751B1
:1042D000B0F0E1F0660F771F881F991F1AF0BA95AA
:1042E000C9F714C0B13091F00E94EE21B1E00895F9
:1042F0000C94EE21672F782F8827B85F39F0B93FEB
:10430000CCF3869577956795B395D9F73EF490955C
:104310008095709561957F4F8F4F9F4F0895E894DA
:1043200009C097FB3EF490958095709561957F4FFD
:104330008F4F9F4F9923A9F0F92F96E9BB279395AB
:10434000F695879577956795B795F111F8CFFAF4BB
:10435000BB0F11F460FF1BC06F5F7F4F8F4F9F4FEC
:1043600016C0882311F096E911C0772321F09EE84A
:10437000872F762F05C0662371F096E8862F70E0B0
:1043800060E02AF09A95660F771F881FDAF7880F8A
:104390009695879597F9089557FD9058440F551FA6
:1043A00059F05F3F71F04795880F97FB991F61F0B7
:1043B0009F3F79F087950895121613061406551F2E
:1043C000F2CF4695F1DF08C0161617061806991F9A
:1043D000F1CF86957105610508940895E894BB278F
:1043E00066277727CB0197F908950E9408220C943D
:1043F00079220E946B2238F00E94722220F09523CD
:1044000011F00C9462220C94682211240C94EF2178
:104410000E94CC2170F3959FC1F3950F50E0551F7A
:10442000629FF001729FBB27F00DB11D639FAA2709
:10443000F00DB11DAA1F649F6627B00DA11D661F58
:10444000829F2227B00DA11D621F739FB00DA11D79
:10445000621F839FA00D611D221F749F3327A00D33
:10446000611D231F849F600D211D822F762F6A2FCF
:1044700011249F5750409AF0F1F088234AF0EE0F34
:10448000FF1FBB1F661F771F881F91505040A9F761
:104490009E3F510580F00C9462220C94EF215F3F07
:1044A000E4F3983ED4F3869577956795B795F7959D
:1044B000E7959F5FC1F7FE2B880F911D9695879515
:1044C00097F9089597F99F6780E870E060E0089594
:1044D0009FEF80EC089500240A941616170618061C
:1044E0000906089500240A941216130614060506F8
:1044F0000895092E0394000C11F4882352F0BB0F89
:1045000040F4BF2B11F460FF04C06F5F7F4F8F4FEB
:104510009F4F089597FB072E16F4009407D077FD60
:1045200009D00E94A42207FC05D03EF49095819505
:104530009F4F0895709561957F4F0895EE0FFF1F6F
:104540000590F491E02D0994AA1BBB1B51E107C013
:10455000AA1FBB1FA617B70710F0A61BB70B881F13
:10456000991F5A95A9F780959095BC01CD010895A2
:10457000F999FECF92BD81BDF89A992780B508952B
:10458000A8E1B0E042E050E00C94E022262FF99937
:10459000FECF92BD81BDF89A019700B4021639F0A2
:1045A0001FBA20BD0FB6F894FA9AF99A0FBE089573
:1045B0000196272F0E94C7220C94C622DC01CB0152
:1045C000FC01F999FECF06C0F2BDE1BDF89A319623
:1045D00000B40D9241505040B8F70895F894FFCFC1
:1045E0000520BA0128080A03140A631AF11ACE1A20
:1045F0009A1A661A01010203040506070809004019
:104600004D3639A50458042204E9037C039503AE12
:0446100003C70300D9
:00000001FF
