:100000000C942B090C9447090C9447090C9447094C
:100010000C9447090C9447090C9447090C94470920
:100020000C9447090C9447090C9450100C94AF1091
:100030000C9447090C9447090C9447090C94470900
:100040000C9447090C9447090C9447090C944709F0
:100050000C9447090C9447090C9447090C944709E0
:100060000C9447090C9447090C9447090C944709D0
:100070000C9447090C9447090C9447090C944709C0
:100080000C9447090C9447090C9447090C944709B0
:100090000C9447090C9447090C9447090C944709A0
:1000A0000C9447090C9447090C9447090000000080
:1000B000620F620F620F620F00000000620F620F9A
:1000C000620F620F620F0000000000000000620F6C
:1000D000620F0000000000000000620F620FD80FE6
:1000E000D80FD80F620F620F620F620F620F620F9C
:1000F000620F620F620F620F620F620F620F620F78
:10010000620F620F620F620F620F620F0000000049
:10011000620F620F620F620F620F620F620F620F57
:10012000620F620F620F620F620F620F620F620F47
:10013000620F620F620F620F620F620F620F620F37
:10014000620F620F620F620F620F620F620F620F27
:10015000620F620F000000000000000000000000BD
:10016000000000000000000000000000000000008F
:10017000000000000000000000000000000000007F
:10018000000000000000000000000000000000006F
:10019000000000000000000000000000000000005F
:1001A000000000000000000000000000000000004F
:1001B000000000000000000000000000000000003F
:1001C000000000000000000000000000000000002F
:1001D000000000000000000000000000000000001F
:1001E000000000000000000000000000000000000F
:1001F00000000000000000000000000000006A0F86
:100200006A0F6A0F6A0F6A0F6A0F6A0F6A0F6A0F26
:10021000620F6A0F620F000000006A0F6A0F6A0F18
:100220006A0F0000000000000000620F620F620F02
:10023000000000006A0F6A0F6A0F6A0F6A0F6A0FE8
:100240006A0F0000620F620F620F620F0000000071
:100250006A0F6A0F6A0F6A0F6A0F6A0F00000000C8
:100260000000620F620F620F000000006A0F6A0F49
:100270006A0F6A0F6A0F6A0F6A0F00000000620FB0
:10028000620F620F000000006A0F620F620F620FC0
:10029000620F620F620F620F620F620F620F620FD6
:1002A000620F6A0F00006A0F620F620F6A0F6A0F17
:1002B0006A0F0000000000006A0F6A0F00000000D3
:1002C00000006A0F6A0F6A0F6A0F0000000000004A
:1002D00000006A0F6A0F6A0F000000006A0F6A0FC1
:1002E0006A0F6A0F6A0F6A0F6A0F6A0F6A0F6A0F46
:1002F0006A0F6A0F6A0F6A0F6A0F6A0F620F620F46
:10030000620F6A0F000000006A0F620F620F620F37
:100310006A0F6A0F6A0F6A0F6A0F620F6A0F6A0F1D
:100320006A0F6A0F6A0F6A0F620F6A0F6A0F6A0F0D
:1003300000006A0F6A0F6A0F6A0F6A0F6A0F6A0F6E
:100340006A0F6A0F6A0F6A0F6A0F6A0F00000000D7
:10035000000000000000000000006A0F6A0F6A0F32
:100360006A0F6A0F6A0F0000000000000000000022
:10037000000000000000000000006A0F6A0F6A0F12
:100380006A0F0000000000000000000000000000F4
:1003900000006A0F6A0F6A0F6A0F6A0F6A0F6A0F0E
:1003A000000000000000000000000000000000004D
:1003B0006A0F6A0F6A0F6A0F6A0F6A0F0000000067
:1003C000000000000000000000006A0F6A0F6A0FC2
:1003D0006A0F6A0F6A0F6A0F000000000000000039
:1003E0000000000000006A0F6A0F6A0F6A0F6A0FB0
:1003F0006A0F6A0F0000000000000000000000000B
:1004000000000000000000000000000000000000EC
:1004100000000000000000000000000000000000DC
:1004200000000000000000000000000000000000CC
:1004300000000000000000000000000000000000BC
:1007300000000000000000000000000000008A0F20
:10074000620F620F620F620F00000000620F620F03
:10075000620F620F620F0000000000000000620FD5
:10076000620F0000000000000000620F620FD80F4F
:10077000D80FD80F620F620F620F620F620F620F05
:10078000620F620F620F620F620F620F620F620FE1
:10079000620F620F620F620F620F620F00000000B3
:1007A000620F620F620F620F620F620F620F620FC1
:1007B000620F620F620F620F620F620F620F620FB1
:1007C000620F620F620F620F620F620F620F620FA1
:1007D000620F620F620F620F620F620F620F620F91
:1007E000620F620F00008C0F00000000000000008C
:1007F00000000000000000000000000000000000F9
:1008000000000000000000000000000000000000E8
:1008100000000000000000000000A60F0000000023
:1008200000000000000000000000000000000000C8
:1008300000000000000000000000000000000000B8
:1008400000000000000000000000000000000000A8
:100850000000000000000000000000000000000098
:100860000000000000000000000000000000000088
:100870000000000000000000000000000000000078
:1008800000000000000000000000000000006A0FEF
:100890006A0F6A0F6A0F6A0F6A0F6A0F6A0F6A0F90
:1008A000620F6A0F620F0000900F6A0F6A0F6A0FE3
:1008B0006A0F0000000000000000620F620F620F6C
:1008C000050E8E0F6A0F6A0F6A0F6A0F6A0F6A0FA2
:1008D0006A0F0000620F620F620F620F00000000DB
:1008E0006A0F6A0F6A0F6A0F6A0F6A0F0000000032
:1008F0000000620F620F620F000000006A0F6A0FB3
:100900006A0F6A0F6A0F6A0F6A0F00000000620F19
:10091000620F620F000000006A0F620F620F620F29
:10092000620F620F620F620F620F620F620F620F3F
:10093000620F6A0F00006A0F620F620F6A0F6A0F80
:100940006A0F0000000000006A0F6A0F000000003C
:10095000940F6A0F6A0F6A0F6A0F00000000000010
:1009600000006A0F6A0F6A0F050E920F6A0F6A0F76
:100970006A0F6A0F6A0F6A0F6A0F6A0F6A0F6A0FAF
:100980006A0F6A0F6A0F6A0F6A0F6A0F620F620FAF
:10099000620F6A0F000000006A0F620F620F620FA1
:1009A0006A0F6A0F6A0F6A0F6A0F620F6A0F6A0F87
:1009B0006A0F6A0F6A0F6A0F620F6A0F6A0F6A0F77
:1009C000A60F6A0F6A0F6A0F6A0F6A0F6A0F6A0F23
:1009D0006A0F6A0F6A0F6A0F6A0F6A0F0000000041
:1009E000000000000000000000006A0F6A0F6A0F9C
:1009F0006A0F6A0F6A0F0000960F000000000000E7
:100A0000000000000000000000006A0F6A0F6A0F7B
:100A10006A0F980F000000000000000000000000B6
:100A200000006A0F6A0F6A0F6A0F6A0F6A0F6A0F77
:100A300000000000000000000000000000000000B6
:100A40006A0F6A0F6A0F6A0F6A0F6A0F00000000D0
:100A5000000000000000000000006A0F6A0F6A0F2B
:100A60006A0F6A0F6A0F6A0F0000000000000000A2
:100A70000000000000006A0F6A0F6A0F6A0F6A0F19
:100A80006A0F6A0F00000000000000000000000074
:100A90000000000000000000000000000000000056
:100AA0000000000000000000000000000000000046
:100AB0000000000000000000000000000000000036
:100AC0000000000000000000000000000000000026
:100DC0000000000000000000000000000001E32817
:100DD0007FE20000E6802CE78100000000504F0019
:100DE0000000005152010002E11D1B061905E0E45C
:100DF0000E10363738E52B041516170700000B11B7
:100E0000080C12342F141A09130A2A2A0D0F181C61
:100E10003330351E1F2021222E3123242526272D55
:100E200000010000000000000000000000000000C1
:100E300000000000000000000000000000000000B2
:100E400000000000000000000000000000000000A2
:100E50000000000000000000000000000000000092
:100E60000000000000000000000000000000000082
:100E70000000000000000000000000000000620010
:100E80002C0003000000000000000046474800025C
:100E90000000000000000000B0595A5B0000000094
:100EA000000000000000005C5D5E0000000000002B
:100EB00000000000005F60610000003A3B3C3D3EE6
:100EC00044453F404142430000004D4A00000000BD
:100ED000000000000000040000000000000000000E
:100EE00000000003000000000000000000000000FF
:100EF0000000000050514F0000000050514F000012
:100F0000000000520000000000005200000000003D
:100F100000000000000000000000000000000000D1
:100F200000000000000000000000040000000000BD
:100F300000000000000000050000000000000000AC
:100F400000000000000000000000000000000000A1
:100F50000000000000000000000000000000000091
:100F60000000000000000000000000000000000081
:100F70000000000000000000000000000000000071
:100F80000000000000000000000000000000000061
:100F90000000000000000000000000000000000051
:100FA0000000000000000000000000000000000041
:100FB0000000000000000000000000000000000031
:100FC0000000000000000000000000000000000021
:100FD0000000000000000000000000000000000011
:100FE0000000000000000000000000000000000001
:100FF00000000000000000000000000000000000F1
:1010000000000000000000000000000000000000E0
:1010100000000000000000000000000000000000D0
:1010200000000000000000000000000000000000C0
:1010300000000000000000000000000000000000B0
:1010400000000000000000000000000000000000A0
:101050000000000000000000000000000000000090
:101060000000000000000000000000000000000080
:101070000000000000000000000000000000000070
:101080000000000000000000000000000000000060
:101090000000000000000000000000000000000050
:1010A0000000000000000000000000000000000040
:1010B0000000000000000000000000000000000030
:1010C0000000000000000000000000000000000020
:1010D0000000000000000000000000000000000010
:1010E0000000000000000000000000000000000000
:1010F00000000000000000000000000000000000F0
:1011000000000000000000000000000000000000DF
:1011100000000000000100005A1112000200006CE3
:10112000113B002100007E110900220000A7113FA1
:101130000021010097110900220100E611190003A6
:101140000000FF110401030904031218020309043B
:101150001D123601C10601C1060012010002000085
:101160000020501D286000010102000109023B001F
:10117000020100C03209040000010301010009213D
:1011800011010001223F000705810308000A09043C
:1011900001000103000000092111010001221900D2
:1011A0000705820308000A05010906A101750195DA
:1011B00008050719E029E715002501810295017549
:1011C0000881039505750105081901290591029506
:1011D0000175039103950675081500256805071923
:1011E0000029688100C0050C0901A10185031501D2
:1011F000269C0219012A9C02751095018100C004E9
:10120000030904180375006E007300700065006325
:10121000006900660069006500640000003603454F
:1012200000720067006F0044006F007800200065C6
:1012300000720067006F006E006F006D0069006350
:101240000020006B006500790062006F0061007291
:1012500000640000000011241FBECFEFDAE0DEBF03
:10126000CDBF11E0A0E0B1E0E6EAF4E202C00590F3
:101270000D92A032B107D9F712E0A0E2B1E001C0AF
:101280001D92AF3CB107E1F7D7D00C9451120C94EA
:10129000000020912001281760F030E0281B310960
:1012A000F901EE0FFF1FE20FF31FE557FD4F80819D
:1012B000089580E0089520912001281760F030E023
:1012C000281B3109F901EE0FFF1FE20FF31FE5574D
:1012D000FD4F8281089580E00895E1E0F1E021E092
:1012E00030E0922F41914423B1F4F901E050FF4FD7
:1012F00031E03083409120014F5F4093200150E066
:10130000FA01EE0FFF1FE40FF51FE557FD4F808335
:101310002183628306C02F5F3F4F2431310509F7D7
:1013200090E0892F0895CF93DF936091200191E0A1
:10133000C82FD0E0C050DF4F36C0292F30E0F90170
:10134000EE0FFF1FE20FF31FE557FD4F2181281716
:1013500049F518C09A012F5F3F4FF901EE0FFF1FAB
:10136000E20FF31FE557FD4F2081DA01AA0FBB1FE3
:10137000A40FB51FA557BD4F2C93218111962C9317
:1013800011979F5F492F50E0961721F7FA01EE0F52
:10139000FF1FE40FF51FE557FD4F108211821882E1
:1013A000692F61509F5F691740F660932001DF91BC
:1013B000CF9108953091C90290918A0220918902BB
:1013C0008091CC02ECE12E9FF001112428EA332316
:1013D00069F0929F90011124E20FF31F90E0880FB3
:1013E000991FE80FF91FE45CF84F0CC0929F900121
:1013F0001124E20FF31F90E0880F991FE80FF91FE7
:10140000E455FF4F85919491FC01009709F00995EF
:1014100080912001282F30E0F901EE0FFF1FE20F2D
:10142000F31FE557FD4F9281923029F490913402D9
:10143000992309F078CF08952AD18CE090E0909319
:1014400089008093880090938B0080938A0090930A
:101450008D0080938C00259A269A279ACED5E4D5C4
:101460008823E9F38FE790E09093890080938800C8
:101470002FE732E440E1215030404040E1F700C026
:10148000000090938B0080938A002FE732E440E1C4
:10149000215030404040E1F700C0000090938D00A3
:1014A00080938C002FE732E440E1215030404040EF
:1014B000E1F700C0000025982698279890938900AE
:1014C0008093880090938B0080938A0090938D0086
:1014D00080938C0080911401909115012091160148
:1014E0003091170130931501209314019093170147
:1014F00080931601D8D010923302A2C01092CA0273
:1015000095C00D2F10E0E0911601F09117012C2FDE
:1015100030E0220F331FC90173E0880F991F7A95BD
:10152000E1F7821B930B800F911FE80FF91F408199
:101530004093C902E0911401F09115012C2F30E085
:10154000220F331FC901B3E0880F991FBA95E1F745
:10155000821B930B800F911FE80FF91F80818093EE
:10156000C702481709F45DC04423C1F080E091DE52
:1015700080938A022C2F30E0220F331FF90153E0B1
:10158000EE0FFF1F5A95E1F7E21BF30BE00FF11F7F
:10159000EB5CFD4F80831092C80226C08C2F90E038
:1015A000880F991FFC01A3E0EE0FFF1FAA95E1F73A
:1015B000E81BF90BE00FF11FEB5CFD4F808180937E
:1015C0008A028C2F90E0880F991FFC0123E0EE0F18
:1015D000FF1F2A95E1F7E81BF90BE00FF11FEF5D04
:1015E000FE4F80818093C802C0938902D093CC02C1
:1015F0001092CB02DFDE2091CA028091330290E08C
:10160000880F991FFC0173E0EE0FFF1F7A95E1F739
:10161000E81BF90BE20FF11DEF5DFE4F8091C80250
:1016200080838091CA028F5F8093CA02D091CA02E0
:10163000C0913302DE3008F464CFCF5FC093330231
:1016400080913302863008F459CFF1D424D78FE14A
:101650009EE40197F1F700C000008091280280FF0E
:1016600002C0259A01C025988091280281FF02C0FE
:10167000269A01C026988091280282FF02C0279AEC
:1016800001C02798809128028091280223CFC3D0DF
:10169000882329F41AD0882321F082E0089581E07C
:1016A000089580E00895CF93DF93EC017DD18823E6
:1016B00031F4CE0135D0882321F082E003C081E0EF
:1016C00001C080E0DF91CF910895CF9343D380E4B0
:1016D00062D3C82F882301F580E05DD380E85BD317
:1016E0008FEF59D350D336D380E455D3C82F8823F6
:1016F00099F48CE050D380E84ED38FEF4CD343D392
:1017000029D380E448D3C82F882331F484E143D31C
:101710008FEF41D38FEF3FD336D38C2FCF910895E6
:101720008F929F92AF92BF92CF92DF92FF920F93D0
:101730001F93CF93DF930F92CDB7DEB76C01C5DF58
:10174000F82E882371F0F60186E010821182128251
:10175000138214821582168281503E968823A9F73F
:101760004CC000E010E081E0A82EB12CF3D280E460
:1017700012D382E110D3C501002E02C0880F991F39
:101780000A94E2F7809507D3FED2E4D280E403D333
:1017900083E101D3DFD281E4FED2CE0101961BD3D7
:1017A000F2D2698170E020E030E085E090E0D6017F
:1017B000A00FB11FFD01E20FF31F4B01082E02C065
:1017C000959487940A94E2F741E080FC40E04083DE
:1017D0000197225F3F4F4FEF8F3F940759F70F5FFD
:1017E0001F4F0730110509F0C1CFB4D280E4D3D226
:1017F00082E1D1D28FEFCFD2C6D28F2D0F90DF9161
:10180000CF911F910F91FF90DF90CF90BF90AF903D
:101810009F908F900895E1E6F0E080E88083108249
:1018200056985E9824982C9825982698279889EAA7
:101830008093800089E08093810083D23F9885E087
:101840008A95F1F70000579885E08A95F1F7000036
:10185000549885E08A95F1F70000559885E08A95BF
:10186000F1F700006E9885E08A95F1F70000479A3D
:1018700085E08A95F1F700005F9A85E08A95F1F797
:1018800000005C9A85E08A95F1F700005D9A85E09A
:101890008A95F1F70000769A85E08A95F1F70000C5
:1018A000879885E08A95F1F70000869885E08A950B
:1018B000F1F70000859885E08A95F1F7000084989B
:1018C00085E08A95F1F70000819885E08A95F1F727
:1018D0000000809885E08A95F1F70000209885E067
:1018E0008A95F1F70000219885E08A95F1F70000CC
:1018F000229885E08A95F1F70000239885E08A9583
:10190000F1F70000529885E08A95F1F700005398AE
:1019100085E08A95F1F700003E9885E08A95F1F719
:1019200000008F9A85E08A95F1F700008E9A85E095
:101930008A95F1F700008D9A85E08A95F1F700000D
:101940008C9A85E08A95F1F70000899A85E08A955E
:10195000F1F70000889A85E08A95F1F70000289851
:1019600085E08A95F1F70000299885E08A95F1F7DE
:1019700000002A9885E08A95F1F700002B9885E011
:101980008A95F1F700005A9885E08A95F1F70000F2
:101990005B9885E08A95F1F70000469885E08A9586
:1019A000F1F7000080E00895FC01209A85E08A9517
:1019B000F1F700008FB18095881F8827881F8783E3
:1019C00081E07E9980E0858B81E07D9980E083A332
:1019D00081E07C9980E081AB81E0799980E087AFFC
:1019E000DF01AA5BBF4F81E0789980E017968C9366
:1019F0001797209885E08A95F1F70000219A85E0F5
:101A00008A95F1F700008FB18095881F8827881F7D
:101A1000808781E07E9980E0868B81E07D9980E0FF
:101A200084A381E07C9980E082ABDF01A05CBF4FA2
:101A300081E0799980E08C93DF01AA5BBF4F81E060
:101A4000789980E018968C931897219885E08A956C
:101A5000F1F70000229A85E08A95F1F700008FB136
:101A60008095881F8827881F818781E07E9980E084
:101A7000878B81E07D9980E085A381E07C9980E07F
:101A800083ABDF01AF5BBF4F81E0799980E08C933E
:101A9000DF01AA5BBF4F81E0789980E019968C93B3
:101AA0001997229885E08A95F1F70000239A85E03E
:101AB0008A95F1F700008FB18095881F8827881FCD
:101AC000828781E07E9980E0808F81E07D9980E04F
:101AD00086A381E07C9980E084ABDF01AE5BBF4FE1
:101AE00081E0799980E08C93DF01AA5BBF4F81E0B0
:101AF000789980E01A968C931A97239885E08A95B6
:101B0000F1F70000529A85E08A95F1F700008FB155
:101B10008095881F8827881F838781E07E9980E0D1
:101B2000818F81E07D9980E087A381E07C9980E0CE
:101B300085ABDF01AD5BBF4F81E0799980E08C938D
:101B4000DF01AA5BBF4F81E0789980E01B968C9300
:101B50001B97529885E08A95F1F70000539A85E02B
:101B60008A95F1F700008FB18095881F8827881F1C
:101B7000848781E07E9980E0828F81E07D9980E09A
:101B800080A781E07C9980E086ABDF01AC5BBF4F32
:101B900081E0799980E08C93DF01AA5BBF4F81E0FF
:101BA000789980E01C968C931C97539885E08A95D1
:101BB000F1F700003E9A85E08A95F1F700008FB1B9
:101BC0008095881F8827881F858781E07E9980E01F
:101BD000838F81E07D9980E081A781E07C9980E01E
:101BE00087ABDF01AB5BBF4F81E0799980E08C93DD
:101BF000EA5BFF4F81E0789980E085873E9885E039
:101C00008A95F1F7000080E0089586D187D18AD1C6
:101C10008DD190D191D192D193D194D195C1662398
:101C200009F473C0633E61F1643E40F4613EC1F06B
:101C3000623EF0F4603E09F04DC00AC0653E81F19D
:101C4000653E30F1663EA1F1673E09F043C038C001
:101C500090912F02882311F0916039C09E7F37C088
:101C600090912F02882311F0926031C09D7F2FC088
:101C700090912F02882311F0946029C09B7F27C088
:101C800090912F02882311F0986021C0977F1FC088
:101C900090912F02882311F0906119C09F7E17C088
:101CA00090912F02882311F0906211C09F7D0FC088
:101CB00090912F02882311F0906409C09F7B07C088
:101CC00090912F02882311F0906801C09F77909324
:101CD0002F020895E9E2F2E020E030E090818823CD
:101CE00039F0992361F4275D3D4FF9016083089530
:101CF000961729F4275D3D4FF901108208952F5F53
:101D00003F4F31962630310549F70895E62FF0E030
:101D1000EE0FFF1FE65EFE4F20813181882329F000
:101D20003093CE022093CD0208958091CD02909100
:101D3000CE022817390721F41092CE021092CD025C
:101D40000895E9EBF0E080818C7F808388E48093C4
:101D5000B800089584EA8093BC008091BC0087FF9E
:101D6000FCCF8091B900887F883049F08091B9001C
:101D7000887F803131F08091B900887F089580E0BC
:101D8000089580E0089584E98093BC008091BC00B0
:101D900084FDFCCF08958093BB0084E88093BC0051
:101DA0008091BC0087FFFCCF8091B900887F88318B
:101DB00071F08091B900887F883249F08091B90034
:101DC000887F803431F08091B900887F089580E069
:101DD000089580E0089524EC2093BC002091BC007D
:101DE00027FFFCCF2091BB00FC0120838091B9002C
:101DF000887F803521F08091B900887F089580E048
:101E00000895CF93DF93CDE1D2E0C80FD11D888133
:101E10008ADA1882DF91CF9108951F93CF93DF93D1
:101E2000E0918A0294E5E99FF00111244091890232
:101E300050E0440F551F9A0163E0220F331F6A954B
:101E4000E1F7241B350BE20FF31F9091CC02E90F51
:101E5000F11DE453F24F1491C82FD0E0C35EDD4F63
:101E6000888161DA80E027DA8150823018F480E0DE
:101E700010DA59DA812F60E030DA8883DF91CF9170
:101E80001F910895E0918A0284E5E89FF0011124F2
:101E90008091890290E09C01220F331FC901A3E0C9
:101EA000880F991FAA95E1F7821B930BE80FF91F82
:101EB0008091CC02E80FF11DE453F24F64918091C0
:101EC000C902ADCE8091C802882319F481E08093C5
:101ED0003402D8CF81E08093C8028091CB028F5F1B
:101EE0008093CB02D6D980938A029091CC02209124
:101EF000890230E0220F331FF90163E0EE0FFF1F6C
:101F00006A95E1F7E21BF30BE90FF11DEB5CFD4F66
:101F1000808350CA81E081CF81E073CF82E071CFAE
:101F200083E07BCF83E06DCF84E077CF84E069CF1F
:101F300085E073CF85E065CF86E063CF87E061CF32
:101F400088E05FCF89E05DCF8AE05BCFF89481E0E5
:101F50008093E00080E28093D800E9ECF0E010820A
:101F60008FE19EE40197F1F700C000001DBA1092C6
:101F700068001CBC10BE1FBA10927A0010926E004E
:101F800010926F0010927100109272001082ECEBB0
:101F9000F0E0108214B817B81AB81DB810BA108241
:101FA00015B818B81BB81EB811BA0C94003F0895A4
:101FB000E0918A0284E5E89FF00111248091890272
:101FC00090E09C01220F331FC901B3E0880F991FD5
:101FD000BA95E1F7821B930BE80FF91F8091CC02B1
:101FE000E80FF11DE453F24F64918091C9028ECE47
:101FF0008091E80080FFFCCF089581E08093D700B6
:1020000080EA8093D80082E189BD09B400FEFDCF4B
:1020100080E98093D8001092E000109230028CE0AA
:102020008093E20078940895809130020895809121
:102030003002882389F18FB7F89491E09093E900FA
:102040009091E4009E5C21E03091E80035FD0EC0E7
:102050008FBF809130028823F9F08091E4008917C6
:10206000E9F08FB7F8942093E900EECF90912F021A
:102070009093F1001092F100E9E2F2E096E02191F4
:102080002093F1009150D9F79AE39093E8001092D1
:1020900031028FBF80E008958FEF08958FEF08958C
:1020A0001F920F920FB60F9211242F938F939F932D
:1020B000EF93FF938091E1001092E10083FF0FC046
:1020C0001092E90091E09093EB001092EC0092E204
:1020D0009093ED0098E09093F0001092300282FF10
:1020E00034C080913002882381F12091180122238D
:1020F00061F1809132028F5F8093320290E08370B1
:102100009070009711F581E08093E9008091E800DC
:1021100085FF1BC0809131028F5F8093310282174F
:10212000A1F41092310280912F028093F10010925D
:10213000F100E9E2F2E080E091919093F1008F5F8D
:102140008630D1F78AE38093E800FF91EF919F9169
:102150008F912F910F900FBE0F901F9018951F9287
:102160000F920FB60F921124EF92FF920F931F93CD
:102170002F933F934F935F936F937F938F939F938F
:10218000AF93BF93EF93FF93CF93DF930F92CDB7AE
:10219000DEB71092E9008091E80083FF32C1209100
:1021A000F1003091F100E090F100FF244091F10046
:1021B000942F80E0E82AF92A0091F10010E0409184
:1021C000F100942F80E0082B192B6091F100A09171
:1021D000F10082EF8093E800363009F051C049E009
:1021E00024E131E1F901859194918E159F0539F42F
:1021F000F9013296859194918017910729F0295F12
:102200003F4F415079F7FDC0F90134968591949183
:10221000AC012A5F3F4FF901249170E09A2F80E0D2
:10222000682B792B6F3F710519F010F06FEF70E09C
:10223000621708F4262FAEEF8091E80090E0BC0111
:102240006570707061157105B9F382FDDDC0322FC4
:10225000213208F030E2CA01632F06C0FC0101966A
:10226000E491E093F10061506623C1F7430F511DE3
:10227000231BA093E8002223F9F63032E9F2C4C010
:10228000353049F48EEF8093E800B2DE8E2D806801
:102290008093E300B9C0393049F5222309F06CC0BE
:1022A000E09230028EEF8093E80041E083E591E117
:1022B00001C0C9014093E9009C012F5F3F4FFC0121
:1022C00054915093EB00552361F0F9012491209330
:1022D000EC009C012D5F3F4F0296FC01849180939E
:1022E000ED004F5F453029F78EE141C0383039F4B9
:1022F000203809F041C07CDE8091300260C0332379
:10230000A9F4298375DE2981223851F40093E9006C
:102310009091EB0081E095FF80E01092E90001C010
:1023200080E08093F1001092F10067C0313011F02D
:10233000333011F5223001F5E114F104E9F4402FB6
:102340004F77842F81508430B8F48EEF8093E8006B
:102350004093E900333009F454C089E18093EB00E5
:1023600081E090E002C0880F991F4A95E2F78093C0
:10237000EA001092EA0048C00115110509F041C0B9
:10238000213A01F5313081F433DE80912F028093C0
:10239000F1001092F100E9E2F2E086E09191909371
:1023A000F1008150D9F729C0323021F421DE80912B
:1023B000180105C0333029F51BDE80911901809387
:1023C000F1001BC02132E9F4393061F48091E8005A
:1023D00082FFFCCF8091F100809328028BEF8093E5
:1023E000E8000BC03A3029F4F09218011092310243
:1023F00004C03B3031F4E09219018EEF8093E80085
:1024000003C081E28093EB000F90DF91CF91FF91A9
:10241000EF91BF91AF919F918F917F916F915F915C
:102420004F913F912F911F910F91FF90EF900F903F
:102430000FBE0F901F90189590913002992339F19B
:102440009FB7F89422E02093E9002091E4002E5CED
:1024500032E04091E80045FD0EC09FBF90913002F0
:102460009923A9F09091E400921799F09FB7F894FE
:102470003093E900EECF8093F1006093F100709308
:10248000F1008AE38093E8009FBF80E008958FEF1A
:1024900008958FEF08956091CD027091CE0283E090
:0624A000CBCFF894FFCF42
:1024A6000100000000000000000000000000000025
:1024B600000000007501C9017D01CD00B600B50020
:00000001FF
